:0E0000000C9433000C9400000C9400000C943F
:10000E0000000C9400000C9400000C9400000C9462
:10001E0000000C9400000C9400000C9400000C9452
:10002E0000000C9400000C9400000C9400000C9442
:10003E0000000C9400000C9400000C9400000C9432
:10004E0000000C940000039F250D9949411F0109E2
:10005E000A00600254000000F894EE27ECBBF1E0B9
:10006E00FBBFEBBFE5BF8DE0A2E0BB27ED938A950A
:10007E00E9F780E098E0A0E6ED930197E9F7EEE569
:10008E00F0E085919591009761F0A591B59105905D
:10009E001590BF01F00105900D920197E1F7FB015C
:1000AE00F0CFEFE5EDBFE8E0EEBFC0E6D2E00C9496
:1000BE006000EFEFE4BBE1BBECE05E2EE3E2E515A2
:1000CE00B0F0A52DBB27EAE0F0E034D07E2EA52DB2
:1000DE00B0E0EAE0F0E029D04E2E0BD0E5BBE72DE4
:1000EE0008D0E2BBA6E2B2E041D05394E7CFE4CF12
:1000FE00FFCFF0E0E05AFD4FE0810895F195E195D4
:10010E00F04008950024112490E1AA0FBB1F001C9B
:10011E00111C0E1A1F0A18F40E0E1F1E01C0A1602C
:10012E009A9599F7FD01D001089512D0EBDF0EF4E8
:10013E00E5DF0895E894B7FF04C0B195A195B040EE
:10014E006894F7FDDBDFDEDFFD010EF4D7DF0895E7
:10015E00E894F7FF02C0D2DF6894B7FF06C0B195EE
:10016E00A195B04000F8039400FA0895109639F066
:10017E00A89580ED97E00197F1F71197C9F70895CB
:00000001FF
